{
  "address": "0xe7f1725E7734CE288F8367e1Bb143E90bb3F0512",
  "abi": [
    {
      "inputs": [
        {
          "internalType": "address",
          "name": "priceFeeAddress",
          "type": "address"
        }
      ],
      "stateMutability": "nonpayable",
      "type": "constructor"
    },
    {
      "inputs": [],
      "name": "FundMe__NotOwner",
      "type": "error"
    },
    {
      "inputs": [],
      "name": "MINIMUN_USD",
      "outputs": [
        {
          "internalType": "uint256",
          "name": "",
          "type": "uint256"
        }
      ],
      "stateMutability": "view",
      "type": "function"
    },
    {
      "inputs": [],
      "name": "cheaperWithdraw",
      "outputs": [],
      "stateMutability": "nonpayable",
      "type": "function"
    },
    {
      "inputs": [],
      "name": "fund",
      "outputs": [],
      "stateMutability": "payable",
      "type": "function"
    },
    {
      "inputs": [
        {
          "internalType": "address",
          "name": "funder",
          "type": "address"
        }
      ],
      "name": "getAddressToAmountFunded",
      "outputs": [
        {
          "internalType": "uint256",
          "name": "",
          "type": "uint256"
        }
      ],
      "stateMutability": "view",
      "type": "function"
    },
    {
      "inputs": [
        {
          "internalType": "uint256",
          "name": "index",
          "type": "uint256"
        }
      ],
      "name": "getFunders",
      "outputs": [
        {
          "internalType": "address",
          "name": "",
          "type": "address"
        }
      ],
      "stateMutability": "view",
      "type": "function"
    },
    {
      "inputs": [],
      "name": "getOwner",
      "outputs": [
        {
          "internalType": "address",
          "name": "",
          "type": "address"
        }
      ],
      "stateMutability": "view",
      "type": "function"
    },
    {
      "inputs": [],
      "name": "getPriceFee",
      "outputs": [
        {
          "internalType": "contract AggregatorV3Interface",
          "name": "",
          "type": "address"
        }
      ],
      "stateMutability": "view",
      "type": "function"
    },
    {
      "inputs": [],
      "name": "withdraw",
      "outputs": [],
      "stateMutability": "nonpayable",
      "type": "function"
    }
  ],
  "transactionHash": "0x66b149c4de140996f9121fab7a02936537cfce8ea311a56e340b0787f3def635",
  "args": [
    "0x5FbDB2315678afecb367f032d93F642f64180aa3"
  ],
  "numDeployments": 1,
  "solcInputHash": "1ac52dc9d54615ac9d0f3f2aa8b8503e",
  "bytecode": "0x60a06040523480156200001157600080fd5b50604051620012ec380380620012ec833981810160405281019062000037919062000120565b3373ffffffffffffffffffffffffffffffffffffffff1660808173ffffffffffffffffffffffffffffffffffffffff1660601b8152505080600260006101000a81548173ffffffffffffffffffffffffffffffffffffffff021916908373ffffffffffffffffffffffffffffffffffffffff1602179055505062000152565b600080fd5b600073ffffffffffffffffffffffffffffffffffffffff82169050919050565b6000620000e882620000bb565b9050919050565b620000fa81620000db565b81146200010657600080fd5b50565b6000815190506200011a81620000ef565b92915050565b600060208284031215620001395762000138620000b6565b5b6000620001498482850162000109565b91505092915050565b60805160601c61116d6200017f60003960008181610251015281816104bd015261061d015261116d6000f3fe60806040526004361061007b5760003560e01c80635f33facd1161004e5780635f33facd1461013c578063893d20e814610167578063b60d428814610192578063be2693f01461019c5761007b565b80630343fb25146100805780632100f479146100bd5780633a7b6c74146100e85780633ccfd60b14610125575b600080fd5b34801561008c57600080fd5b506100a760048036038101906100a29190610aa5565b6101b3565b6040516100b49190610aeb565b60405180910390f35b3480156100c957600080fd5b506100d26101fc565b6040516100df9190610aeb565b60405180910390f35b3480156100f457600080fd5b5061010f600480360381019061010a9190610b32565b610208565b60405161011c9190610b6e565b60405180910390f35b34801561013157600080fd5b5061013a61024f565b005b34801561014857600080fd5b5061015161048f565b60405161015e9190610be8565b60405180910390f35b34801561017357600080fd5b5061017c6104b9565b6040516101899190610b6e565b60405180910390f35b61019a6104e1565b005b3480156101a857600080fd5b506101b161061b565b005b6000600160008373ffffffffffffffffffffffffffffffffffffffff1673ffffffffffffffffffffffffffffffffffffffff168152602001908152602001600020549050919050565b674563918244f4000081565b600080828154811061021d5761021c610c03565b5b9060005260206000200160009054906101000a900473ffffffffffffffffffffffffffffffffffffffff169050919050565b7f000000000000000000000000000000000000000000000000000000000000000073ffffffffffffffffffffffffffffffffffffffff163373ffffffffffffffffffffffffffffffffffffffff16146102d4576040517f579610db00000000000000000000000000000000000000000000000000000000815260040160405180910390fd5b60005b60008054905081101561037f5760008082815481106102f9576102f8610c03565b5b9060005260206000200160009054906101000a900473ffffffffffffffffffffffffffffffffffffffff1690506000600160008373ffffffffffffffffffffffffffffffffffffffff1673ffffffffffffffffffffffffffffffffffffffff1681526020019081526020016000208190555050808061037790610c61565b9150506102d7565b50600067ffffffffffffffff81111561039b5761039a610caa565b5b6040519080825280602002602001820160405280156103c95781602001602082028036833780820191505090505b50600090805190602001906103df92919061099b565b5060003373ffffffffffffffffffffffffffffffffffffffff164760405161040690610d0a565b60006040518083038185875af1925050503d8060008114610443576040519150601f19603f3d011682016040523d82523d6000602084013e610448565b606091505b505090508061048c576040517f08c379a000000000000000000000000000000000000000000000000000000000815260040161048390610d7c565b60405180910390fd5b50565b6000600260009054906101000a900473ffffffffffffffffffffffffffffffffffffffff16905090565b60007f0000000000000000000000000000000000000000000000000000000000000000905090565b674563918244f4000061051f600260009054906101000a900473ffffffffffffffffffffffffffffffffffffffff16346108bf90919063ffffffff16565b1015610560576040517f08c379a000000000000000000000000000000000000000000000000000000000815260040161055790610de8565b60405180910390fd5b6000339080600181540180825580915050600190039060005260206000200160009091909190916101000a81548173ffffffffffffffffffffffffffffffffffffffff021916908373ffffffffffffffffffffffffffffffffffffffff16021790555034600160003373ffffffffffffffffffffffffffffffffffffffff1673ffffffffffffffffffffffffffffffffffffffff16815260200190815260200160002060008282546106129190610e08565b92505081905550565b7f000000000000000000000000000000000000000000000000000000000000000073ffffffffffffffffffffffffffffffffffffffff163373ffffffffffffffffffffffffffffffffffffffff16146106a0576040517f579610db00000000000000000000000000000000000000000000000000000000815260040160405180910390fd5b60008080548060200260200160405190810160405280929190818152602001828054801561072357602002820191906000526020600020905b8160009054906101000a900473ffffffffffffffffffffffffffffffffffffffff1673ffffffffffffffffffffffffffffffffffffffff16815260200190600101908083116106d9575b5050505050905060005b81518110156107ae57600082828151811061074b5761074a610c03565b5b602002602001015190506000600160008373ffffffffffffffffffffffffffffffffffffffff1673ffffffffffffffffffffffffffffffffffffffff168152602001908152602001600020819055505080806107a690610c61565b91505061072d565b50600067ffffffffffffffff8111156107ca576107c9610caa565b5b6040519080825280602002602001820160405280156107f85781602001602082028036833780820191505090505b506000908051906020019061080e92919061099b565b5060003373ffffffffffffffffffffffffffffffffffffffff164760405161083590610d0a565b60006040518083038185875af1925050503d8060008114610872576040519150601f19603f3d011682016040523d82523d6000602084013e610877565b606091505b50509050806108bb576040517f08c379a00000000000000000000000000000000000000000000000000000000081526004016108b290610d7c565b60405180910390fd5b5050565b6000806108cb836108fb565b90506000670de0b6b3a764000085836108e49190610e5e565b6108ee9190610ee7565b9050809250505092915050565b6000808273ffffffffffffffffffffffffffffffffffffffff1663feaf968c6040518163ffffffff1660e01b815260040160a06040518083038186803b15801561094457600080fd5b505afa158015610958573d6000803e3d6000fd5b505050506040513d601f19601f8201168201806040525081019061097c9190610fa5565b5050509150506402540be400816109939190611020565b915050919050565b828054828255906000526020600020908101928215610a14579160200282015b82811115610a135782518260006101000a81548173ffffffffffffffffffffffffffffffffffffffff021916908373ffffffffffffffffffffffffffffffffffffffff160217905550916020019190600101906109bb565b5b509050610a219190610a25565b5090565b5b80821115610a3e576000816000905550600101610a26565b5090565b600080fd5b600073ffffffffffffffffffffffffffffffffffffffff82169050919050565b6000610a7282610a47565b9050919050565b610a8281610a67565b8114610a8d57600080fd5b50565b600081359050610a9f81610a79565b92915050565b600060208284031215610abb57610aba610a42565b5b6000610ac984828501610a90565b91505092915050565b6000819050919050565b610ae581610ad2565b82525050565b6000602082019050610b006000830184610adc565b92915050565b610b0f81610ad2565b8114610b1a57600080fd5b50565b600081359050610b2c81610b06565b92915050565b600060208284031215610b4857610b47610a42565b5b6000610b5684828501610b1d565b91505092915050565b610b6881610a67565b82525050565b6000602082019050610b836000830184610b5f565b92915050565b6000819050919050565b6000610bae610ba9610ba484610a47565b610b89565b610a47565b9050919050565b6000610bc082610b93565b9050919050565b6000610bd282610bb5565b9050919050565b610be281610bc7565b82525050565b6000602082019050610bfd6000830184610bd9565b92915050565b7f4e487b7100000000000000000000000000000000000000000000000000000000600052603260045260246000fd5b7f4e487b7100000000000000000000000000000000000000000000000000000000600052601160045260246000fd5b6000610c6c82610ad2565b91507fffffffffffffffffffffffffffffffffffffffffffffffffffffffffffffffff821415610c9f57610c9e610c32565b5b600182019050919050565b7f4e487b7100000000000000000000000000000000000000000000000000000000600052604160045260246000fd5b600081905092915050565b50565b6000610cf4600083610cd9565b9150610cff82610ce4565b600082019050919050565b6000610d1582610ce7565b9150819050919050565b600082825260208201905092915050565b7f43616c6c206661696c6564000000000000000000000000000000000000000000600082015250565b6000610d66600b83610d1f565b9150610d7182610d30565b602082019050919050565b60006020820190508181036000830152610d9581610d59565b9050919050565b7f5370656e642074686973206d6f6e657920626f73732100000000000000000000600082015250565b6000610dd2601683610d1f565b9150610ddd82610d9c565b602082019050919050565b60006020820190508181036000830152610e0181610dc5565b9050919050565b6000610e1382610ad2565b9150610e1e83610ad2565b9250827fffffffffffffffffffffffffffffffffffffffffffffffffffffffffffffffff03821115610e5357610e52610c32565b5b828201905092915050565b6000610e6982610ad2565b9150610e7483610ad2565b9250817fffffffffffffffffffffffffffffffffffffffffffffffffffffffffffffffff0483118215151615610ead57610eac610c32565b5b828202905092915050565b7f4e487b7100000000000000000000000000000000000000000000000000000000600052601260045260246000fd5b6000610ef282610ad2565b9150610efd83610ad2565b925082610f0d57610f0c610eb8565b5b828204905092915050565b600069ffffffffffffffffffff82169050919050565b610f3781610f18565b8114610f4257600080fd5b50565b600081519050610f5481610f2e565b92915050565b6000819050919050565b610f6d81610f5a565b8114610f7857600080fd5b50565b600081519050610f8a81610f64565b92915050565b600081519050610f9f81610b06565b92915050565b600080600080600060a08688031215610fc157610fc0610a42565b5b6000610fcf88828901610f45565b9550506020610fe088828901610f7b565b9450506040610ff188828901610f90565b935050606061100288828901610f90565b925050608061101388828901610f45565b9150509295509295909350565b600061102b82610f5a565b915061103683610f5a565b9250827f7fffffffffffffffffffffffffffffffffffffffffffffffffffffffffffffff048211600084136000841316161561107557611074610c32565b5b817f800000000000000000000000000000000000000000000000000000000000000005831260008412600084131616156110b2576110b1610c32565b5b827f800000000000000000000000000000000000000000000000000000000000000005821260008413600084121616156110ef576110ee610c32565b5b827f7fffffffffffffffffffffffffffffffffffffffffffffffffffffffffffffff058212600084126000841216161561112c5761112b610c32565b5b82820290509291505056fea2646970667358221220a3f39a435535ba4cf7439a73602699bde20b879736feef1d80b474bd809d09be64736f6c63430008080033",
  "devdoc": {
    "author": "Oluwatobi Bello",
    "details": "This implements price feeds  as our library",
    "kind": "dev",
    "methods": {},
    "title": "A contract for collection",
    "version": 1
  },
  "userdoc": {
    "kind": "user",
    "methods": {},
    "notice": "This contract is to demo hardhat and hardhat deploy magic powers",
    "version": 1
  },
  "storageLayout": {
    "storage": [
      {
        "astId": 63,
        "contract": "contracts/FundMe.sol:FundMe",
        "label": "s_funders",
        "offset": 0,
        "slot": "0",
        "type": "t_array(t_address)dyn_storage"
      },
      {
        "astId": 67,
        "contract": "contracts/FundMe.sol:FundMe",
        "label": "s_addressToAmountFunded",
        "offset": 0,
        "slot": "1",
        "type": "t_mapping(t_address,t_uint256)"
      },
      {
        "astId": 72,
        "contract": "contracts/FundMe.sol:FundMe",
        "label": "s_priceFeed",
        "offset": 0,
        "slot": "2",
        "type": "t_contract(AggregatorV3Interface)45"
      }
    ],
    "types": {
      "t_address": {
        "encoding": "inplace",
        "label": "address",
        "numberOfBytes": "20"
      },
      "t_array(t_address)dyn_storage": {
        "base": "t_address",
        "encoding": "dynamic_array",
        "label": "address[]",
        "numberOfBytes": "32"
      },
      "t_contract(AggregatorV3Interface)45": {
        "encoding": "inplace",
        "label": "contract AggregatorV3Interface",
        "numberOfBytes": "20"
      },
      "t_mapping(t_address,t_uint256)": {
        "encoding": "mapping",
        "key": "t_address",
        "label": "mapping(address => uint256)",
        "numberOfBytes": "32",
        "value": "t_uint256"
      },
      "t_uint256": {
        "encoding": "inplace",
        "label": "uint256",
        "numberOfBytes": "32"
      }
    }
  }
}